:020000040800F2
:1000000040480020C5020008D9100008D50D00089E
:10001000D5100008210C0008152800080000000079
:100020000000000000000000000000002D02000899
:10003000250C000800000000710200088D21000856
:10004000DF020008DF020008DF020008DF0200080C
:10005000DF020008DF020008DF020008DF020008FC
:10006000DF020008DF020008DF020008DF020008EC
:10007000DF020008DF020008DF020008DF020008DC
:10008000DF020008DF020008DF020008DF020008CC
:10009000DF020008DF020008DF020008DF020008BC
:1000A000DF020008DF020008DF020008DF020008AC
:1000B000DF020008B9220008DF020008DF020008A2
:1000C000DF020008DF020008DF020008DF0200088C
:1000D000DF02000839240008C1240008DF020008FC
:1000E000DF020008DF020008DF020008DF0200086C
:1000F000DF020008DF020008DF020008DF0200085C
:10010000DF020008DF020008DF020008DF0200084B
:10011000DF020008DF020008DF020008DF0200083B
:10012000DF020008DF020008DF020008DF0200082B
:1001300000F002F800F06BF80AA090E8000C82448E
:100140008344AAF10107DA4501D100F060F8AFF26B
:10015000090EBAE80F0013F0010F18BFFB1A43F0A5
:100160000103184740DA000060DA00000A444FF04B
:10017000000C10F8013B13F0070408BF10F8014B06
:100180001D1108BF10F8015B641E05D010F8016B4B
:10019000641E01F8016BF9D113F0080F1EBF10F8AF
:1001A000014BAD1C0C1B09D16D1E58BF01F801CBD2
:1001B000FAD505E014F8016B01F8016B6D1EF9D555
:1001C0009142D6D37047000000230024002500266A
:1001D000103A28BF78C1FBD8520728BF30C148BFAA
:1001E0000B607047642900F00181732900F09F8340
:1001F000002070471FB500F031FC040000200021F2
:1002000004F01AFE401C60601FBD10B510BD00F068
:100210009AFC1146FFF7EEFF02F0DCFB00F0C6FC93
:1002200003B4FFF7F2FF03BC02F0FEFA224B196899
:100230000868B0E8F00F80F30988BFF36F8F4FF0C4
:10024000000080F311884EF00D0E70470000000092
:1002500006480068006880F3088862B661B6BFF39C
:100260004F8FBFF36F8F00DF00BF00BF08ED00E0CE
:10027000EFF30980BFF36F8F0F4B1A6820E9F00F7F
:10028000106008B54FF0500080F31188BFF34F8F16
:10029000BFF36F8F03F090FF4FF0000080F31188E1
:1002A000BDE8084019680868B0E8F00F80F30988D5
:1002B000BFF36F8F704700BFFC000020EFF3058095
:1002C000704700000948804709480047FEE7FEE7FD
:1002D000FEE7FEE7FEE7FEE7FEE7FEE7FEE7FEE7F6
:1002E00004480549054A064B704700009D21000857
:1002F00031010008403F0020404800203F440020DA
:1003000040440020704700000FB4044910B503AA10
:10031000029800F011FB10BC5DF814FB2C000020CB
:100320000FB41CB5084B06AA7B446946009005989B
:1003300000F0D3FA04460020694600F0E1FA2046B6
:100340001CBC5DF814FB0000D505000070B5044628
:1003500085690068C10601D5302600E02026C00767
:1003600007D070BDD4E9012130469047206A401C77
:1003700020626D1EF6D570BD70B5044685690078A3
:10038000C00707D170BDD4E9012120209047206A21
:10039000401C20626D1EF6D570BD70B50C4605463A
:1003A000012A05D02878800600D5EA69002302E0FA
:1003B000012305E05B1C934202D2E05C0028F9D1E6
:1003C000A869E618C01AA861286A18442862284655
:1003D000FFF7BCFF04E0D5E9012114F8010B9047B9
:1003E000B442F8D32846FFF7C7FF70BD2DE9F041AE
:1003F0000646002410687529314616A510D0AFF3C3
:100400000080002802DA404213A507E031688A071D
:1004100001D512A502E0490704D511A5012401E088
:10042000AFF3008000210A2206F1240709E0B0FBA7
:10043000F2FCB0FBF2F302FB1C003030785418469B
:10044000491C0028F3D123462A463046BDE8F04136
:1004500000F0E4B9000000002D0000002B000000B7
:10046000200000002DE9F05F894604464FF0000AA5
:10047000DFF824B1FB44C0F820A02046E16888479B
:1004800000287DD0252806D0D4E901219047206A94
:10049000401C2062F1E700255F462046E16888475E
:1004A0002028064607DB312E05D2B81910F8200C9B
:1004B00008B10543F1E7A80701D525F00405C4F804
:1004C0001CA00027C4F818A02A2E09D0304602F03C
:1004D000A4F938B304EB8708303EC8F8186019E077
:1004E00059F8041B204604EB87029161E1688847B4
:1004F000012F064618D1E069002820DA25F02005F2
:100500001DE0D8F8180000EB800006EB4000303802
:10051000C8F818002046E1688847064602F07DF9D1
:100520000028EED1012F0AD02E2E08D12046E168F6
:1005300088477F1C0646022F45F02005C4DBA069D2
:10054000002803DA404245F00105A061E80701D028
:1005500025F01005A6B1A6F14100192802D82036D1
:1005600045F400654A463146204625604D46FFF772
:1005700039FE60B1012807D0ED1D25F0070000E02D
:1005800007E000F1080978E705F1040975E730464E
:100590007AE7206ABDE8F09FFCD6000070B50646F9
:1005A00000F038F90468054630460A22002100F0C0
:1005B000D5F92C6070BD0000014A00F007BA0000B8
:1005C0007001002030B505460B462A4613F8014B52
:1005D00012F8010B08B1A042F8D01CB1002802D0DB
:1005E0006D1CF1E7284630BD40EA0103024630B5F4
:1005F0009B0710D14FF0013400E008C208C91D1B51
:100600009D4315EAC41FF8D013F0FF0102F8011B47
:100610000DD01B0AF8E711F8013B002B02F8013B53
:1006200005D011F8013B002B02F8013BF3D130BD9E
:10063000032A40F2308010F0030C00F0158011F80E
:10064000013BBCF1020F624498BF11F801CB00F8E6
:10065000013B38BF11F8013BA2F1040298BF00F83A
:1006600001CB38BF00F8013B11F0030300F02580F7
:10067000083AC0F0088051F8043B083A51F804CB1E
:10068000A0E80810F5E7121D5CBF51F8043B40F8E4
:10069000043BAFF30080D20724BF11F8013B11F8EF
:1006A00001CB48BF11F8012B24BF00F8013B00F833
:1006B00001CB48BF00F8012B704710B5203AC0F0BD
:1006C0000B80B1E81850203AA0E81850B1E8185053
:1006D000A0E81850BFF4F5AF5FEA027C24BFB1E890
:1006E0001850A0E8185044BF18C918C0BDE8104001
:1006F0005FEA827C24BF51F8043B40F8043B08BF0A
:100700007047D20728BF31F8023B48BF11F8012BD0
:1007100028BF20F8023B48BF00F8012B704702F0C9
:10072000FF0343EA032242EA024200F073B94FF0AA
:10073000000200B5134694469646203922BFA0E831
:100740000C50A0E80C50B1F12001BFF4F7AF09073D
:1007500028BFA0E80C5048BF0CC05DF804EB89002E
:1007600028BF40F8042B08BF704748BF20F8022B71
:1007700011F0804F18BF00F8012B70474FF0013C7B
:1007800050F8042B51F8043B9A4221D1A2EB0C0300
:10079000934313EACC1317D150F8042B51F8043BC0
:1007A0009A4215D1A2EB0C03934313EACC130BD15D
:1007B00050F8042B51F8043B9A4209D1A2EB0C03E8
:1007C000934313EACC13DBD04FF00000704700BF17
:1007D000D01A01BAB1FA81F101F0180122FA01F040
:1007E000CB40C1F12001DBB2C0B2C01A2CFA01F338
:1007F000D11A914311EAC311E6D17047704770478F
:100800007047704710B500F029F9001D10BD00BFFA
:100810002946000000487047E03E00202DE9F047DF
:100820000D4699469246044600F124080168880660
:1008300004D5E06921F01001216000E00120A84208
:1008400001DD471B00E00027A1697A1902EB0900CE
:10085000081AA0612078C00602D42046FFF776FD72
:10086000002608E0D4E901211AF806009047206A22
:10087000401C761C20624E45F4DB2078C0060AD569
:100880002046FFF763FD06E0D4E9012130209047C0
:10089000206A401C2062381EA7F10107F4DC07E043
:1008A000D4E9012118F805009047206A401C206215
:1008B000281EA5F10105F3DC2046FFF75DFD207839
:1008C000000602D50220BDE8F0870120FBE700000A
:1008D00001694A1C02610878704700B58FB0CDE904
:1008E00001310021059105497944CDE903101146F4
:1008F0006846FFF7B7FD0FB000BD0000E5FFFFFF42
:100900000A6802F8010B0A60704710B5436913B119
:10091000AFF3008001E0FFF740FD012010BD127829
:1009200000F124010A7000224A700122EDE71168EB
:100930004FF0FF32E9E70000074B70B50D467B44EE
:10094000FFF7CBFF0446284600F0DBF810B14FF06C
:10095000FF3070BD204670BD471F00002DE9F047F5
:1009600091460F4680460446002614F8015B2DB1DF
:10097000FFF748FF0068405DC007F6D12B2D02D07D
:100980002D2D18D0641E4A463946204600F06AF8DC
:1009900027B13968A14201D1C7F800804FF00204A5
:1009A00071050BD54042002803DDFFF733FF0460DB
:1009B000A007BDE8F08746F48066E4E70028F8DA8F
:1009C000FFF728FF04606FF00040F2E72DE9F041E7
:1009D00015460E46040002D12C6804B90BA420462B
:1009E00000F0A3F80444207870B127463146384619
:1009F00000F08BF80444207810B1002004F8010BBB
:100A000038462C60BDE8F0810027F9E700000000BF
:100A10004FF000020429C0F0128010F0030C3FF4E4
:100A200088AECCF1040CBCF1020F18BF00F8012B0A
:100A3000A8BF20F8022BA1EB0C01FFF77ABE5FEAFA
:100A4000C17C24BF00F8012B00F8012B48BF00F83F
:100A5000012B704700487047E03E00200048704777
:100A6000003F00202DE9F05F824615468B460027A7
:100A70000AF10104B9460078302801D09DB113E095
:100A800014F8010B0127782803D0582801D045B16C
:100A90000AE00DB1102D07D1002714F8010B102525
:100AA00002E0082500E00A250026B0460EE005FB1E
:100AB000080005FB06F101271FFA80F801EB10463C
:100AC000B6F5803F00D3B94614F8010B294600F073
:100AD0005FF80028EBDABBF1000F05D00FB1641E00
:100AE00000E05446CBF80040B9F1000F06D0FFF704
:100AF00091FE02210160C81EBDE8F09F48EA064051
:100B0000FAE7007B00F08000704730B503461D789F
:100B10001DB10A4603E0AC4201D1181A30BD12F8EB
:100B2000014B002CF7D15B1CF1E730B503461D7873
:100B30003DB10A4612F8014B1CB1AC42FAD15B1C24
:100B4000F5E7181A30BD7546FFF784FFAE4605007D
:100B50006946534620F00700854618B020B5FFF7D8
:100B6000BFFBBDE820404FF000064FF000074FF0FC
:100B700000084FF0000B21F00701AC46ACE8C009BB
:100B8000ACE8C009ACE8C009ACE8C0098D467047C4
:100B90003A2800D2303820F02002412A01D3A2F1B5
:100BA0003700884201D34FF0FF30704710B504463C
:100BB000AFF300802046BDE81040FFF731BB0000D6
:100BC00008B50121082000F075FD4FF40060ADF874
:100BD000000010208DF8030003208DF80200694604
:100BE000044800F020F84FF40061024800F0F0F8EB
:100BF00008BD0000000C014010B54FF40061024830
:100C000000F0E6F810BD0000000C014010B54FF4F4
:100C10000061024800F0DAF810BD0000000C01404D
:100C200000BFFEE770472DE9F0410246002500268F
:100C3000002000230024002791F803C00CF00F05CA
:100C400091F803C00CF0100CBCF1000F03D091F828
:100C500002C04CEA050591F800C0BCF1000F31D08C
:100C6000146800202BE04FF0010C0CFA00F3B1F8EF
:100C700000C00CEA03069E4220D183004FF00F0C07
:100C80000CFA03F7BC4305FA03FC4CEA040491F8A0
:100C900003C0BCF1280F06D14FF0010C0CFA00FC88
:100CA000C2F814C00AE091F803C0BCF1480F05D1A6
:100CB0004FF0010C0CFA00FCC2F810C0401C0828D0
:100CC000D1D31460B1F800C0BCF1FF0F34DD54681B
:100CD00000202EE000F1080C4FF0010808FA0CF398
:100CE000B1F800C00CEA03069E4221D183004FF008
:100CF0000F0C0CFA03F7BC4305FA03FC4CEA04049E
:100D000091F803C0BCF1280F05D100F1080C08FAD6
:100D10000CF8C2F8148091F803C0BCF1480F07D159
:100D200000F1080C4FF0010808FA0CF8C2F8108026
:100D3000401C0828CED35460BDE8F081F0B50A46C7
:100D4000002300240021002500F00046B6F1004FEA
:100D500002D11D4EF16901E01B4E7168C0F30345DD
:100D600083B200F44016B6F5401F08D121F070613F
:100D7000154E766826F07066134F7E6012E000F420
:100D80008016B6F5801F06D1032606FA05F4A143A6
:100D900041F0706106E0460D360103FA06F6B143F4
:100DA00041F0706122B1460D360103FA06F6314377
:100DB00000F00046B6F1004F02D1034EF16101E0B0
:100DC000014E7160F0BD00000000014041617047BC
:100DD0000161704700BFFEE710B543A14648FFF729
:100DE0009FFA46A144481E30FFF79AFA4648027817
:100DF00046A141483C30FFF793FA48480368484809
:100E0000027848A13C485A30FFF78AFA4A480368FA
:100E10004A4802784AA138487830FFF781FA05221B
:100E200035494C4800F04CFA4B480078A8B949487D
:100E3000B0F9020005280FD2DFE800F003070B0C21
:100E40000D0046484649086006E0464844490860A7
:100E500002E001E000E000BF41E03F4800780328E5
:100E60001ED13C48B0F90200052814D2DFE800F09A
:100E700003070811120001203B4908700BE00AE04B
:100E80002148007808B9012000E000201E490870C0
:100E900001E000E000BF00BF0120334908701EE000
:100EA0002D48007805281AD12A48B0F902000528F3
:100EB00014D2DFE800F003070811120001202A49CC
:100EC00008700BE00AE01048007808B9012000E043
:100ED00000200D49087001E000E000BF00BF0020C5
:100EE0002249087010BD000053797374656D20505D
:100EF00067616520000000008203002053657420B4
:100F00005061676500000000B8000020436F6E74F8
:100F1000726F6C203D20256420000000A40000209A
:100F20009C0000204C61646172203D2025642020DB
:100F3000543A253364000000A00000209D000020EA
:100F40005368616B65203D2025642020533A25338A
:100F500064000000E2000020E0000020FD21000805
:100F6000DC0000208D1F0008FB000020D8000020BE
:100F700010B510210748FFF72BFF08210548FFF7A0
:100F800027FF10210348FFF721FF08210148FFF741
:100F90001DFF10BD000C014010B508210548FFF7EA
:100FA00017FF10210348FFF711FF10210148FFF739
:100FB0000FFF10BD000C014010B508210348FFF7DA
:100FC00007FF08210148FFF701FF10BD000C014099
:100FD000014605E008787F2801DD00207047491CA4
:100FE00008780028F6D10120F8E700B5024610463F
:100FF00000F0DAFB08B9002000BD0120FCE700008A
:1010000008B501210C2000F055FB4FF47870ADF8C5
:10101000000048208DF8030003208DF80200694687
:101020000A48FFF700FE4FF48050ADF80000694613
:101030000748FFF7F8FD4FF478710448FFF7C8FE42
:101040004FF480510248FFF7C3FE08BD000C014079
:101050000008014008B50121102000F02BFB4FF4DF
:101060000050ADF8000010208DF8030003208DF82B
:10107000020069460448FFF7D6FD4FF400510248CC
:10108000FFF7A6FE08BD00000010014008B50121D1
:10109000042000F00FFB1020ADF8000004208DF8B4
:1010A000030003208DF8020069460848FFF7BBFDE6
:1010B0002020ADF8000010208DF803006946034899
:1010C000FFF7B1FD01200249086008BD000801409A
:1010D0009401214200BFFEE77047000070B5002177
:1010E00000230F22C47804B3154C246804F4E06490
:1010F000C4F5E064210AC1F10403CA40447804FA4B
:1011000003F184781440214309010E4C0678A1555F
:10111000047804F01F050124AC4005786D11AD0082
:1011200005F1E025C5F8004109E0047804F01F0549
:101130000124AC40044D0678761145F8264070BD78
:101140000CED00E000E400E080E100E00249014332
:10115000024A1160704700000000FA050CED00E043
:1011600070B500240CE0002506E00020074901EBE3
:10117000C5010855681CC5B2802DF6DB601CC4B2E1
:10118000082CF0DB00F026F970BD00009407002069
:10119000F0B5144600267F2801DC3F2900DDF0BDB4
:1011A0000B46CF1701EB5777C7F3C702CF1701EBF9
:1011B0005777FF10A1EBC707FDB20123AB40DEB2AA
:1011C0004CB10A4B03EBC0039B5C3343074F07EB67
:1011D000C007BB5408E0054B03EBC0039B5CB34363
:1011E000024F07EBC007BB5400BFD8E794070020AD
:1011F0002DE9F04706460F4690469946DDF820A0B7
:1012000034460CE03D4606E0524629462046FFF7AC
:10121000BFFF681CC5B24D45F6DD601CC4B2444535
:10122000F0DD00F0D7F8BDE8F08710B500F0E6F982
:1012300000218D2000F0C5F90021142000F0C1F933
:101240000021202000F0BDF90021022000F0B9F9B2
:101250000021A12000F0B5F90021C82000F0B1F96B
:101260000021DA2000F0ADF90021122000F0A9F9E8
:101270000021812000F0A5F90021EF2000F0A1F964
:101280000021D92000F09DF90021F12000F099F90A
:101290000021DB2000F095F90021302000F091F9C9
:1012A0000021A42000F08DF90021A62000F089F98A
:1012B0000021AF2000F085F9FFF752FF10BD0000BC
:1012C0002DE9F84304460F4616463C4800780428AA
:1012D00004D16088401C00B2608007E03748007885
:1012E000012803D16088401E00B26080B4F902007A
:1012F000002802DA701E608005E0B4F90200B042F6
:1013000001DB00206080002553E0B4F902000521D4
:1013100090FBF1F000EB80004119701E81420BDD63
:101320000120009005EB45008006010E0C2324A24D
:10133000002000F013F93AE0B4F90200052190FB17
:10134000F1F000EB80002844B4F90210884217D174
:10135000B4F90200052190FBF1F000EB8000284475
:10136000C0EB001007EB40080020009005EB4500A3
:101370008006010E0C234246002000F0EFF816E034
:10138000B4F90200052190FBF1F000EB8000284445
:10139000C0EB001007EB40080120009005EB450072
:1013A0008006010E0C234246002000F0D7F8681C8E
:1013B000C5B2052DA9DBBDE8F8830000E0000020E0
:1013C000202020202020202020202020202020201D
:1013D0002020200070B500241CE004F1B001C8B248
:1013E000002100F0EEF80021084600F0EAF80021A4
:1013F000102000F0E6F8002508E0084901EBC501DF
:10140000085D012100F0DDF8681CC5B2802DF4DB19
:10141000601CC4B2082CE0DB70BD00009407002003
:101420002DE9F84F80460F4616461C46BA46204620
:10143000E31704EB5373DB1021464FEAE47C04EB23
:101440005C7C4FEAEC0CA4EBCC0CBCF1000F02D09E
:101450004FF0010C01E04FF0000C6344224604EB16
:10146000D27C4FEA6C0C03FB0CF303F0FF0BA6F1EC
:101470002000C6B2002562E00C2C07D106EB460026
:10148000314901EB8000405D009027E0102C05D130
:101490002E4800EB0610405D00901FE0182C07D18D
:1014A00006EBC6002A4901EB8000405D009015E084
:1014B000202C07D106EB4600264901EB4010405D89
:1014C00000900BE0302C07D106EBC600224901EB5F
:1014D0000010405D009001E0BDE8F88F4FF000097A
:1014E00027E0009800F0800028B1394640460A9A6B
:1014F000FFF74EFE09E00A9808B9012000E000203D
:10150000024639464046FFF743FE00984006000E6B
:101510000090781CC7B2A7EB0A00A04205D157463D
:1015200008F1010000F0FF0806E009F1010000F0F9
:10153000FF09B9F1080FD4DB00BF681CC5B25D45D7
:101540009ADB00BFC8E70000644E0008D8520008CC
:10155000C858000824660008C48900082DE9F8432B
:1015600006460F4615461C46DDF8208021E004EBB8
:10157000D4714910C1F18001B14202DA0026381954
:10158000C7B2C4F14000B84204DA0020064607465C
:10159000FFF7E6FDCDF800802A782346394630462D
:1015A000FFF73EFF204604EBD07106EB6101CEB29F
:1015B0006D1C28787E2802DC28782028D7DABDE840
:1015C000F88370B505460C46FFF7D2FC782000F092
:1015D00043FCFFF7F1FC1CB1402000F03DFC02E0B1
:1015E000002000F039FCFFF7E7FC284600F034FC4F
:1015F000FFF7E2FCFFF7D0FC70BD000008B5012149
:10160000092000F057F801210C48FFF797FB012152
:101610000B48FFF793FB1820ADF8000010208DF861
:10162000030003208DF8020069460648FFF7FBFA25
:1016300018210448FFF7CCFB08BD0000000430006F
:1016400000023000000C014008B50F4800680F4947
:101650000968884206D0002040238022014600907D
:10166000FFF7C6FD094800680749086040F6B83131
:10167000962001F017F90649087004480068804771
:10168000FFF7A8FE08BD0000F4000020DC000020E9
:10169000E000002029B1064AD2690243044BDA6116
:1016A00004E0034AD2698243014BDA6170470000CB
:1016B0000010024029B1064A92690243044B9A6124
:1016C00004E0034A92698243014B9A61704700002B
:1016D0000010024030B500210022002400232D4DCF
:1016E0006D6805F00C0121B1042905D0082923D12A
:1016F00005E0294D056022E0274D05601FE0254DDE
:101700006D6805F47012234D6D6805F48034022570
:1017100005EB92421CB9214D554305600BE01D4D70
:101720006D6805F400351DB11C4D5543056002E0A0
:10173000194D5543056002E0174D056000BF00BF1D
:10174000144D6D6805F0F0010909154D6B5C0568D5
:10175000DD4045600F4D6D6805F4E061090A104DEC
:101760006B5C4568DD4085600A4D6D6805F460512D
:10177000C90A0B4D6B5C4568DD40C560054D6D6861
:1017800005F44041890B074D6B5CC568B5FBF3F56B
:10179000056130BD0010024000127A0000093D00D2
:1017A0000000002010000020014631B91C480068EC
:1017B00008B9002070470120FCE7012907D118482B
:1017C000001F006808B90020F4E70120F2E70229B1
:1017D00007D11348001D006808B90020EAE701207E
:1017E000E8E7032907D10E480C30006808B900204B
:1017F000E0E70120DEE7042906D10A48006808B9BD
:101800000020D7E70120D5E7052907D10448083093
:10181000006808B90020CDE70120CBE70120C9E727
:10182000188121423001214240F22D100C49B1F8BB
:101830002C116FF30E010A4AA2F82C111146B1F8CF
:101840002C1121F40041A2F82C1105E00022411EC8
:1018500089B20846024B5A540028F7D1704700005D
:101860005402002070B505460C461646FFF7DCFF13
:101870002A460BA10B4800F03CFF0CB9012070BDBB
:10188000304602F0EDFA084908A0FEF73DFD20467B
:1018900000F014F808B10120F1E70020EFE70000A4
:1018A0002573000000440040540200204465677521
:1018B00067205265703A25730D0A000038B503465B
:1018C000684600F025F805460020BDF80010685471
:1018D000002200240FE0985C08B9012038BD1019DF
:1018E0000A49085C995C884202D1501CC2B202E0ED
:1018F000601CC4B200221019BDF800108842EADB57
:10190000985C08B90120E9E70020E7E754020020CD
:1019100001460448B0F82C01C0F30E0008800148CD
:10192000704700005402002038B500244FF4FA72CA
:1019300015A116A0FFF796FFF8B117A11848FEF7FA
:1019400041FE054617A1FEF737FE044616A100200A
:10195000FEF732FE04462046FEF720FEC0B28DF8A8
:10196000000012A10020FEF727FE04462046FEF7E5
:1019700015FEC0B28DF8010001E0002038BDFFF770
:1019800053FF9DF80100F9E74F4B000041542B43F2
:101990005245473F0D0000002B43524547000000D1
:1019A000540200203A0000002C0000000D0A000044
:1019B0007CB500244FF4FA7214A115A0FFF752FF72
:1019C000D8B115A11648FEF7FDFD054615A1FEF795
:1019D000F3FD044614A10020FEF7EEFD0446204668
:1019E000FEF7DCFD009011A10020FEF7E5FD0446A6
:1019F0002046FEF7D3FD019003E0FFF715FF6420BA
:101A00007CBDFFF711FF0098FAE700004F4B000084
:101A100041542B4353510D002B4353510000000000
:101A2000540200203A0000002C0000000D0A0000C3
:101A300010B500F0B5F900F0FFF94FF4FA7209A102
:101A400009A0FFF70FFF08B9002010BD4FF4FA728C
:101A500004A107A0FFF706FF08B90020F5E7012061
:101A6000F3E700004F4B000041540D0A0000000056
:101A700041542B43474D4D0D0A00000010B5C822BC
:101A800002A103A0FFF7EEFE10BD00004F4B0000C7
:101A900041542B434E554D0D00000000F8B5002673
:101AA0001CA0FFF70BFF012801D00020F8BD6846FD
:101AB000FFF72EFF054619A12846FEF783FD0446D1
:101AC00021461AA0FEF720FC0CB90020EEE7601BAF
:101AD000BDF80010081A80B20090BDF80020294619
:101AE00016A0FEF711FCBDF8000008B90020DDE7E4
:101AF00018A12046FEF760FD16A10020FEF75CFD50
:101B00000746FEF74BFDC6B2314613A0FEF7FCFBBD
:101B10003046CBE72B434D54493A00002B434D54FC
:101B2000493A2022534D222C000000007265646166
:101B300074615F6F66663D2573000000434D544934
:101B40003A7265646174613A25732C6C656E3D254B
:101B5000640A00002C0000000D0A61646472657361
:101B6000736E756D3D2564002DE9F04186B0074622
:101B70000D461646142101A8FEF7D9FD4FF00008C6
:101B8000FFF752FE33480078874203DD002006B09D
:101B9000BDE8F0813A4630A101A8FEF7C1FB4FF441
:101BA000FA7230A101A8FFF75DFE20B92FA0FEF761
:101BB000ABFB0020EBE76846FFF7AAFE0446BDF842
:101BC000000008B90020E2E72BA12046FEF7FAFC4E
:101BD00010B94FF0020801E04FF001080AE0BDF82B
:101BE0000000401E80B20090BDF8000008B900203F
:101BF000CDE7641C20782C28F1D1A41C08E014F84F
:101C0000010B05F8010BBDF80000401E80B20090EA
:101C100020782228F3D1002028700AE0BDF80000C7
:101C2000401E80B20090BDF8000008B90020AEE769
:101C3000641C20782B28F1D1A41D03E014F8010BBB
:101C400006F8010B20780D28F8D1002030704046AE
:101C50009DE700003200002041542B434D47523D88
:101C600025640D002B434D47523A000047534D5F0A
:101C700046414C5345000000554E5245414400003A
:101C800070B5BEB004460D46A02116A8FEF74FFD64
:101C90001A2001900026FFF7C7FD2846FFF798F9A4
:101CA000012827D164222FA12FA0FFF7DBFD48B91F
:101CB0001B2001900022114601A8FFF7D3FD002050
:101CC0003EB070BD642227A12BA0FFF7CBFD40B929
:101CD0001B2001900022114601A8FFF7C3FD002040
:101CE000EEE7224627A102A8FEF71AFB294616A80E
:101CF000FEF77AFC4FF4FA7226A102A8FFF7B2FDB4
:101D000038B3FFF791FD16AA23A1244800F0F1FC97
:101D10004FF4FA7002F0A4F86422002101A8FFF742
:101D2000A1FD10E0701CC0B20646C82808DD1B20CB
:101D300001900022114601A8FFF794FD0020BFE7A3
:101D4000642002F08DF807A0FFF7B8FD0128E9D163
:101D5000B6E71B2001900022114601A8FFF782FD83
:101D60000020ADE74F4B000041542B435343533DFC
:101D70002247534D220D000041542B434D47463D11
:101D8000310D000041542B434D47533D2225732212
:101D90000D0000003E0000002573000000440040DC
:101DA00000B585B001214804FFF774FC012104202F
:101DB000FFF780FC0420ADF8100018208DF8130008
:101DC00003208DF8120004A91948FEF72CFF082003
:101DD000ADF8100004208DF8130004A91448FEF794
:101DE00022FF4FF4E13000900020ADF80400ADF880
:101DF0000600ADF80800ADF80C000C20ADF80A00A4
:101E000069460C4800F000FC012240F225510948C7
:101E100000F0D5FB012240F22441064800F0CFFB40
:101E200000F00AF80121034800F086FB05B000BD70
:101E3000000801400044004008B526208DF800004D
:101E400003208DF801008DF8020001208DF80300B9
:101E50006846FFF743F908BD70B5044600251BE04E
:101E600008210F48FEF7B2FF04F0800020B11021D6
:101E70000B48FEF7ADFF03E010210948FEF7A6FF6F
:101E800008210748FEF7A4FF08210548FEF79EFF3A
:101E90006006040E681CC5B2082DE1DB70BD0000B1
:101EA000000C014010B500F001F810BD0CB5002089
:101EB000019000903348006840F480303149086058
:101EC00000BF3048006800F4003000900198401CCA
:101ED0000190009818B90198B0F5A06FF1D1294888
:101EE000006800F4003010B10120009001E00020F3
:101EF00000900098012843D12348006840F010006A
:101F0000214908600846006820F003000860084680
:101F1000006840F0020008601A48406819494860AB
:101F20000846406848600846406840F48060486061
:101F30000846406820F47C1048600846406840F439
:101F4000E81048600846006840F08070086000BFF4
:101F50000C48006800F000700028F9D0094840687B
:101F600020F00300074948600846406840F002003E
:101F7000486000BF0348406800F00C000828F9D111
:101F80000CBD0000001002400020024010B5464881
:101F900046A102684948FEF7C3F9494849A10268C9
:101FA00046481E30FEF7BCF94A484BA10268434838
:101FB0003C30FEF7B5F94CA140485A30FEF7B0F975
:101FC0004BA13E487830FEF7ABF905223B494A4821
:101FD000FFF776F94948007805282DD14648B0F931
:101FE0000200052827D2DFE800F0030E192425009F
:101FF0002D480068B0F57A7F04D22B480068401C59
:102000002949086017E02E4800683D49884204D2FB
:102010002B480068401C2A4908600CE02D480068E5
:10202000B0F57A7F04D22B480068401C294908602B
:1020300001E000E000BF35E03048007803282AD1F5
:102040002D48B0F90200052824D2DFE800F0030D86
:102050001721220014480068022804D91248006899
:10206000401E1149086015E015480068142804D97D
:1020700013480068401E124908600BE015480068CC
:10208000052804D913480068401E1249086001E081
:1020900000E000BF06E019480078022802D1194884
:1020A0001949086010BD0000AC0000205368616B46
:1020B00065434E756D203D2025336400820300206A
:1020C000B000002053656E64434E756D20203D20A6
:1020D00025336400B400002042656570434E756D81
:1020E00020203D20253364004E554C4C200000003C
:1020F0004E554C4C20200000EE000020E000002057
:10210000A0860100D90D0008DC00002008B50121DF
:102110000820FFF7CFFA4FF48060ADF800000420EC
:102120008DF8030003208DF8020069460148FEF790
:102130007AFD08BD000C014010B50BE008480068AE
:1021400008B9012000E00020054908604FF47A70CA
:1021500001F086FEFFF76CFC0128EFD110BD0000F6
:10216000B4012242042808D14FF0E021096941F06E
:1021700004014FF0E022116107E04FF0E02109690E
:1021800021F004014FF0E0221161704710B502F018
:10219000FBFB012801D002F0A5F810BD10B51348D3
:1021A000006840F001001149086008464068104985
:1021B00008400E494860084600680E4908400B492F
:1021C00008600846006820F48020086008464068DF
:1021D00020F4FE0048604FF41F008860FFF762FEA5
:1021E0004FF000600449086010BD0000001002407C
:1021F0000000FFF8FFFFF6FE08ED00E010B51848FC
:10220000B0F9002017A11A48FEF78AF81948027899
:1022100019A117481E30FEF783F81AA114483C3064
:10222000FEF77EF81948036819481AA10268104899
:102230005A30FEF775F813A10D487830FEF770F8A4
:1022400005220B491748FFF73BF81748007802288A
:1022500002D116481649086001201649087010BDC1
:10226000F8000020435351203D2025336420000016
:1022700082030020FA0000204E6574203D202533A3
:10228000642000004E554C4C20000000A4000020AB
:10229000A0000020533A25336420543A25336420AB
:1022A00000000000E8000020E0000020D90D000838
:1022B000DC000020D800002010B501211B4800F0F0
:1022C0004EF801282DD11A480068401C18490860B2
:1022D00008460068401C08B90020086014480068DF
:1022E0004FF47A71B0FBF1F201FB1200B8B911485A
:1022F000006820B10F480068401E0E4908600E4873
:10230000006820B10C480068401E0B4908600B486B
:10231000006820B109480068401E0849086000F0C4
:1023200031FB0121014800F00BF810BD0004004012
:1023300050000020A0000020A4000020A8000020E1
:10234000CA430282704721B1028842F00102028032
:1023500004E002884FF6FE731A400280704730B5E1
:102360000246002000230024158A05EA010395890E
:1023700005EA010413B10CB1012000E0002030BDDA
:102380001AB183890B43838102E083898B43838164
:1023900070470000002202881D4B98420ED01D4B52
:1023A00098420BD0B0F1804F08D01B4B984205D01B
:1023B0001A4B984202D01A4B984204D14FF68F73B1
:1023C0001A404B881A43174B984207D0164B984235
:1023D00004D04FF6FF431A40CB881A4302808B8803
:1023E00083850B8803850A4B98420BD0094B984292
:1023F00008D00E4B984205D00D4B984202D00D4BA1
:10240000984201D10B7A0386012383827047000032
:10241000002C01400034014000040040000800404E
:10242000000C00400010004000140040004001403B
:10243000004401400048014010B540F225511D48BC
:1024400000F093F810B31B4800F04AF9C4B21A48E0
:10245000008800F40040C8B91748008800F48040A4
:1024600060B10A2C03D000201349088020E01248F4
:10247000008840F400401049088019E00D2C06D176
:102480000D48008840F480400B49088010E00A485D
:102490000088C0F30D0009490C5407480088401C0F
:1024A0000549088008460088C72801DD002008800B
:1024B00010BD0000003801403000002074010020F1
:1024C00010B540F225511A4800F04FF8D0B1184825
:1024D00000F006F9C4B21748B0F82C01C0F30E00A2
:1024E000B0F5957F0EDC1349B1F82C11C1F30E0045
:1024F000411C104AB2F82C2161F30E020D49A1F8DB
:102500002C210C5440F22441094800F02EF80128F7
:102510000DD10848B0F82C0120F4004000F500402F
:102520000449A1F82C01024800F0DAF8C4B210BD49
:10253000004400405402002021B1828942F400523C
:10254000828104E082894DF6FF731A4082817047D0
:1025500002460020B1F5007F00D100BF13880B4078
:102560000BB1012000E00020704770B50246002446
:1025700000230025002040F66A16B14200D100BFBA
:10258000C1F3421501F01F03012606FA03F3012DE2
:1025900002D19689334006E0022D02D1168A3340DB
:1025A00001E0968A33400C12012606FA04F41688DC
:1025B000344013B10CB1012000E0002070BDF0B533
:1025C0000346002400260025002040F66A17B94281
:1025D00000D100BF1846C1F3421401F01F060127C5
:1025E00007FA06F5012C01D10C3004E0022C01D1D0
:1025F000103000E014301AB107682F43076002E082
:102600000768AF430760F0BD2DE9F04786B0054687
:102610000E460024A24600BFA1460027B08900B1A3
:1026200000BF2F462C8A4CF6FF700440F08804430C
:102630002C82AC894EF6F3100440B08831890843EF
:10264000718908430443AC81AC8A4FF6FF400440D3
:10265000B0890443AC8201A8FFF73CF81F488742C9
:1026600002D1DDF810A001E0DDF80CA0A88900F48B
:10267000004040B10AEBCA0000EB0A103168490083
:10268000B0FBF1F807E00AEBCA0000EB0A10316872
:102690008900B0FBF1F86420B8FBF0F004012009D8
:1026A000642101FB1089A88900F4004040B1322068
:1026B00000EBC900B0FBF1F000F00700044308E0B4
:1026C000322000EB09106421B0FBF1F000F00F00A4
:1026D00004432C8106B0BDE8F087000000380140BB
:1026E00001468888C0F308007047C1F30802828061
:1026F00070470FB470B586B006460CA8019073E021
:102700000B9800785C281CD10B98401C0B9000782B
:102710006E2809D072280FD10D213046FFF7E5FF52
:102720000B98401C0B900BE00A213046FFF7DDFFB1
:102730000B98401C0B9003E00B98401C0B9000BFC3
:102740004BE00B980078252840D10B98401C0B904B
:102750000078642818D0732833D1019810C80190EC
:102760000BE021783046FFF7C0FF00BF80213046E4
:10277000FFF7EEFE0028F9D0641C20780028F0D185
:102780000B98401C0B9020E0019820C801900A2271
:1027900002A9284600F0C4F802AC0BE021783046CC
:1027A000FFF7A3FF00BF80213046FFF7D1FE0028CE
:1027B000F9D0641C20780028F0D10B98401C0B90B5
:1027C00003E00B98401C0B9000BF06E00B9810F83C
:1027D000011B0B903046FFF788FF00BF8021304679
:1027E000FFF7B6FE0028F9D00B980078002887D1B3
:1027F00006B070BC5DF814FB03480449086006206D
:102800000349087070470000D90D0008DC00002063
:10281000E000002000BFFEE7704730380A2801D2F0
:10282000012070470020704700BF704710B504209A
:10283000FFF798FC104800681049B0FBF1F0104910
:1028400008700D4800680D49B0FBF1F44FF47A7040
:10285000444301200B4908804FF0E020006940F01C
:1028600002004FF0E021086108464461006940F031
:102870000100086110BD00001400002040420F005C
:10288000280000202A00002000BF054A128802F01C
:102890004002002AF9D0C2B2014B1B1D1A807047BA
:1028A0000038014030B505460C4606232FE0184697
:1028B000FEF79BFB01281AD1184850F82300A842C4
:1028C0000BDD164850F82300A04206DA4FF0FF3027
:1028D000124941F82300184630BD104850F8230033
:1028E000002814DD00200D4941F823000FE01846B0
:1028F000FEF77BFB58B9094850F82300A04206DDDB
:10290000A4F5FA70054941F823001846E4E7181EBB
:10291000A3F10101CBB2CAD10620DDE73C020020C1
:10292000F0B503460D461646002729460A2E03D069
:10293000002008702846F0BD33B9302001F8010BA3
:10294000002008702846F6E7002B03DA2D2001F856
:10295000010B5B4242F210720DE093FBF2F404B9FA
:1029600037B104F1300001F8010B04FB12330127E9
:102970000A2092FBF0F2002AEFDC002008702846C3
:10298000D9E7000000B506231BE01846FEF72DFB33
:10299000B8B90F4850F82300401C20B900200C495A
:1029A00041F823000DE00A4850F8230047F2305167
:1029B000884206DA064850F823000A30044941F8F4
:1029C0002300181EA3F10101CBB2DED100BD00002F
:1029D0003C0200204FF44070FEF7B8FBFFF726FFE3
:1029E000FEF738FBFEF70CFBFEF7EAF8FFF78EFB6D
:1029F000FEF74CFB4FF4E13001F022F841F61F41A5
:102A0000092000F0EDFF00F089FF01F083FB00BF1B
:102A1000FEE74FF4FA7001F023FAFEF706FCFFF729
:102A2000EBFE04E0FEF710FE642001F019FAF9E76E
:102A30002DE9F04105460E461C4807681C48006811
:102A4000001D01F0A9F850B91948006890F82C1041
:102A50000120884017490968814316480160681CB5
:102A600038B936B112480168091D134801F0D2F88F
:102A70001AE07C190E4800684460BC4207D20C483A
:102A80000168091D0D48006801F0AAF80CE008482B
:102A90000168091D0A48006801F0A2F809480068A9
:102AA000844201D207480460BDE8F0811001002093
:102AB000FC00002014010020A40E002004010020CE
:102AC000000100202C01002010B5044601F0AEF8F2
:102AD00024480068401C234908602348006840B926
:102AE000214804600846006801280DD100F0E0F993
:102AF0000AE01E48006838B91B480068C06AE16AED
:102B0000884201D81848046019480068401C1849D8
:102B1000086008460068606494F82C100120884022
:102B200014490968084313490860E16A01EB81010F
:102B3000114A02EB8100211D01F06CF801F0A0F8B0
:102B40000A48006868B108480068C06AE16A8842BB
:102B500007D24FF0805009490860BFF34F8FBFF391
:102B60006F8F10BD0C010020FC0000201801002018
:102B70002801002014010020D40B002004ED00E007
:102B800010B501F053F810480068D0B90F4801F0B3
:102B900017F80F4801F014F80C480E4908600C486B
:102BA0000D49086000220C210A2001F0B5FB0649FE
:102BB00008600846006820B108A10348006801F0D9
:102BC00013F901F05DF810BD40010020B80E00209F
:102BD000CC0E0020380100203C010020546D7251C1
:102BE0000000000070B523E001F0DEFA1348006831
:102BF00008B9012000E00020054602F02FF8BDB919
:102C000001F014F80D48C068C468201D00F0C4FF2E
:102C10000B480068401E0A4908600A480068401EC8
:102C20000849086001F02CF8204600F060F800BF69
:102C3000044800680028D7D170BD0000900E002025
:102C40000C0100200801002070B504460D46206CE0
:102C500070B1216CE0680844E0606168E068884217
:102C600001D32068E0602846226CE168FDF7E0FCB3
:102C700070BD2DE9F04104460F4615464FF000089F
:102C8000A66B206C40B9206860BB606801F036FF1D
:102C900080460020606025E07DB93946226CA0683E
:102CA000FDF7C6FC216CA0680844A060D4E90110BF
:102CB000884217D32068A06014E03946226CE0688F
:102CC000FDF7B6FC216CE068401AE0602168E0681E
:102CD000884203D2216C6068401AE060022D01D165
:102CE00006B1761E701CA0634046BDE8F08110B5A9
:102CF0000446206B00F0E2FF204600F0DFFF10BD2D
:102D00000146084A126812680AB9012200E000224E
:102D10000A600A6822B9034A1268D268106800E0A3
:102D2000002070473801002030B54FF44053174859
:102D300000F007042CB1C01D20F00700134C041B49
:102D40001B1B0246124C22600024114D6C60D018EF
:102D5000083820F007000F4C206000240D4D2D682E
:102D60006C600C4D2D682C601146441A4C60094C67
:102D700024680C60084D4C682C60084D4C682C6031
:102D80004FF00044064D2C6030BD0000E00E0020E6
:102D90004C010020540100205C010020580100205B
:102DA0006001002000BFFFF71DFF064800680128F2
:102DB000F9D94FF0805004490860BFF34F8FBFF33B
:102DC0006F8FF0E7D40B002004ED00E02DE9F04117
:102DD00006460D4617469846069C0DB9246000E04D
:102DE0002760E66325640121204601F0A3FB84F8F7
:102DF00050800020A064BDE8F0812DE9F05F82469C
:102E00000F4690469B460A9E0C9C4FEA8801A522DD
:102E1000206BFDF784FCA8F10100216B01EB800918
:102E200029F0070909F0070008B9012000E0002097
:102E300050B900BF502080F31188BFF34F8FBFF30C
:102E40006F8F00BF00BFFEE7002507E0795D04F14A
:102E500034004155785D00B902E06D1C102DF5D3AA
:102E600000BF002143200155202E00D31F26E6621B
:102E7000E66400202065201D00F0AFFE04F118007C
:102E800000F0ABFE2461C6F12000A0616462002066
:102E9000606584F858005A465146484600F08CFB5D
:102EA00020600B9808B10B980460BDE8F09F00000B
:102EB00010B5002407E004EB84010F4A02EB810007
:102EC00000F07EFE641C202CF5D30C4800F078FE48
:102ED0000B4800F075FE0B4800F072FE0A4800F047
:102EE0006FFE0A4800F06CFE044809490860044877
:102EF0000849086010BD0000D40B0020540E0020CB
:102F0000680E00207C0E0020900E0020A40E0020F1
:102F1000000100200401002010B50146164800E021
:102F2000006803688B42FBD30246436813448B421C
:102F300004D143684C682344436001460A464B6809
:102F400013440468A34211D10C4C03682468A342C3
:102F500008D04B680468646823444B6003681B68AE
:102F60000B6005E0054B1B680B6001E003680B601C
:102F7000884200D0016010BD4C01002054010020A7
:102F80002DE9F04104460D4616461F464FF0000855
:102F900065602461B5420CD8F01BA169884202D358
:102FA0004FF0010811E0211D0948006800F018FEEB
:102FB0000BE0BE4204D2BD4202D34FF0010804E050
:102FC000211D0448006800F00BFE4046BDE8F0817A
:102FD0003C0100203801002070B5054600F026FEB7
:102FE000A86B08B9012400E0002400F049FE204647
:102FF00070BD70B5054600F019FEA86BE96B8842FC
:1030000001D1012400E0002400F03AFE204670BD0A
:103010002DE9F3410D460098846C002754B900BF98
:10302000502080F31188BFF34F8FBFF36F8F00BF25
:1030300000BFFEE7A06BE16B884201D2012000E0F7
:10304000002050B900BF502080F31188BFF34F8F8C
:10305000BFF36F8F00BF00BFFEE7A06BE16B88423C
:103060001BD294F945602A4669462046FFF701FEC7
:103070000746701C60B9606A08B9012000E00020B2
:1030800050B904F1240001F09DFD28B1012703E0AF
:10309000701C40B284F8450000BF3846BDE8FC8192
:1030A000F8B505460F4616480068C068C468201D7C
:1030B00000F072FDE06901281DD1A06941192B467D
:1030C0003A462046FFF75CFFA8B1002003462A4697
:1030D00001460090204601F06DFE064656B900BF3D
:1030E000502080F31188BFF34F8FBFF36F8F00BF65
:1030F00000BFFEE700BF2046616A8847F8BD0000B8
:103100003801002070B586B06AE00398002867DBBC
:10311000059C606908B9012000E0002010B9201D5D
:1031200000F03AFD02A800F0BDF8054603980A2811
:1031300054D2DFE800F009050731334F0608323476
:1031400000BF00BF00BF00BF0498A26981180346FA
:103150002A462046FFF714FFE8B12046616A8847F7
:10316000E069012817D1002000900498A169421855
:1031700000231946204601F01DFE064656B900BF41
:10318000502080F31188BFF34F8FBFF36F8F00BFC4
:1031900000BFFEE700BF22E000BF20E000BF0498B0
:1031A000A061A06908B1012000E0002050B900BF73
:1031B000502080F31188BFF34F8FBFF36F8F00BF94
:1031C00000BFFEE7A06941192B462A462046FFF7BB
:1031D000D7FE04E0204600F071FD00E000BF00BF14
:1031E00000231A4603A90448006801F0C1F800282A
:1031F0008BD106B070BD000040010020F8B5054637
:103200000C4600F0D1FF684600F04CF806460098E6
:1032100020BB44B9B54206D801F020FD314628460E
:10322000FFF73EFF1CE03CB10E480068006808B99B
:10323000012000E000200446A91B22460A4800683D
:1032400000F0E8FD01F00AFD50B94FF08050074949
:103250000860BFF34F8FBFF36F8F01E001F0FEFCFA
:10326000F8BD00003C0100204001002004ED00E01A
:103270000A490968096809B9012100E0002121B162
:103280004FF0FF31064A116006E004490968C96839
:10329000C868034A416811607047000000010020BF
:1032A0002C01002070B5044601F07EFB054607485E
:1032B0000068854204D200F00BF80120206001E094
:1032C0000020206001480560284670BD48010020AC
:1032D0002DE9F84332E024480068C06805682248B8
:1032E0000068C068C468201D00F056FC2046616A72
:1032F0008847E069012821D1A0694619AE4207D963
:1033000066602461211D1848006800F069FC15E022
:10331000002003462A4601460090204601F04AFD5F
:10332000074657B900BF502080F31188BFF34F8F75
:10333000BFF36F8F00BF00BFFEE700BF0A48006801
:10334000006808B9012000E000200028C3D006482A
:10335000D0F8008005480068034908600348C0F8B9
:103360000080BDE8F8830000380100203C01002007
:103370000E480068401C08B9012000E0002050B948
:1033800000BF502080F31188BFF34F8FBFF36F8FC2
:1033900000BF00BFFEE700BF502080F31188BFF3DD
:1033A0004F8FBFF36F8F00BF00BFFEE764010020A7
:1033B00008B500BF6846FFF7A3FC04462046009905
:1033C000FFF71CFFFFF79EFEF4E770B5044600F020
:1033D0002DFC94F945501AE0A06C38B1002120462C
:1033E000FFF716FE88B100F0E3FD0EE0606A08B951
:1033F000012000E0002038B904F1240001F0E2FBD4
:1034000018B100F0D5FD00E003E0681E45B2002DC4
:10341000E2DC00BFFF2084F8450000F031FC00F042
:1034200005FC94F9445010E0206908B9012000E03F
:10343000002048B904F1100001F0C4FB08B100F00D
:10344000B7FD681E45B200E001E0002DECDC00BFD6
:10345000FF2084F8440000F013FC70BD2DE9F0411A
:1034600004464FF0000800F09FFE4648006808B987
:10347000FFF75AFC44480068204000286BD1D4B1C3
:10348000083404F00700B0B104F00700C0F10800F0
:10349000044404F0070008B9012000E0002050B9FE
:1034A00000BF502080F31188BFF34F8FBFF36F8FA1
:1034B00000BF00BFFEE7002C4DD0344800688442B6
:1034C00049D8334E3046056801E02E462D686868BD
:1034D000A04202D228680028F7D12A480068854215
:1034E00039D0306800F10808286830606868001B2F
:1034F000102819D92F1907F0070008B9012000E09A
:10350000002050B900BF502080F31188BFF34F8FC7
:10351000BFF36F8F00BF00BFFEE76868001B7860D5
:103520006C603846FFF7F8FC184968680968081AA3
:10353000164908600846006816490968884203D29F
:1035400012480068134908600F4968680968084311
:1035500068600020286001F081FB08F0070008B9CE
:10356000012000E0002050B900BF502080F31188F6
:10357000BFF34F8FBFF36F8F00BF00BFFEE7404622
:10358000BDE8F081540100206001002058010020B6
:103590004C0100205C0100200648006830B105495C
:1035A000096801F15000096D491C0160014800687B
:1035B00070470000FC000020001F4FF08073036084
:1035C000001F21F001030360001F034B0360143848
:1035D0000260203870470000713300080026002583
:1035E0000024FEF7A9FD4FF4FA6000F039FC75A243
:1035F00077A17848FCF794FE642277A177A0FEF7C4
:1036000031F910B978A0FCF77FFE4FF47A7000F022
:1036100027FC642270A17AA0FEF724F910B97BA0E0
:10362000FCF772FE64226CA17DA0FEF71BF910B9B5
:1036300080A0FCF769FE0BE0701CC0B2064614289F
:1036400002DD81A0FCF760FE4FF4FA7000F008FC88
:10365000FEF714FA0128EFD106E086A0FCF754FE2D
:103660004FF4FA7000F0FCFB64225BA186A0FEF729
:10367000F9F80028F1D0FEF757F987490870FEF7EE
:1036800097F900B2854908809AE085480078B0B182
:10369000002083490870002408E0601CC4B24FF485
:1036A0007A7000F0DDFB0F2C00DD05E07DA14948BC
:1036B000FEF7E6FA0128F0D100BFFEF7B5F87B4827
:1036C0000078012808D1FEF72FF973490870FEF73A
:1036D0006FF900B271490880FEF7E0F90546002D48
:1036E0006BD0294672A0FCF70FFE002408E0601C96
:1036F000C4B24FF47A7000F0B3FB0F2C00DD06E08B
:103700006F4A70492846FEF72FFA0028EFD000BF15
:103710006B4A6C496CA0FCF7F7FD72A16848FCF796
:1037200051FFD0B1012071490870002408E0601CED
:10373000C4B24FF47A7000F093FB0F2C00DD05E06B
:103740006BA16048FEF79CFA0128F0D100BFFEF79C
:103750006BF801206A4908601EE06AA15848FCF72E
:1037600031FFC8B1002061490870002408E0601CE6
:10377000C4B24FF47A7000F073FB0F2C00DD05E04B
:1037800062A15048FEF77CFA0128F0D100BFFEF795
:103790004BF801205A4908600A2D0EDD06E035A0DD
:1037A000FCF7B2FD4FF4FA7000F05AFB64220AA154
:1037B00035A0FEF757F80028F1D0642000F050FB48
:1037C00063E7000031373334333835323330370074
:1037D00025730000AE0400204F4B000041542B43E2
:1037E0004D47463D310D00000D0AC9E8D6C3CEC491
:1037F000B1BEC4A3CABDB4EDCEF30D0A00000000F3
:1038000041542B435245473D310D00000D0A202005
:1038100043455247204572726F722020200D0A00E6
:1038200041542B434E4D493D322C312C302C312C00
:10383000310D00000D0A2020434E4D492045727283
:103840006F722020200D0A000D0ABCECB2E2B2BB60
:10385000B5BDB5E7BBB0BFA8A3ACC7EBB6CFB5E766
:10386000B2A2D6D8D0C2BDD3C8EBB5E7BBB0BFA813
:103870000D0A00000D0A2020434D47442045727276
:103880006F722020200D0A0041542B434D47443DC8
:10389000312C340D00000000FA000020F800002058
:1038A000FB000020416C61726D000000D800002018
:1038B000616464726573733A25640D0A0000000048
:1038C0009405002044050020D0C2B6CCD0C53A0AE9
:1038D000B7A2BCFEC8CB3A25730AC4DAC8DD3A25C4
:1038E000730A0D004F70656E00000000B8000020E4
:1038F000416C7265616479204F70656E0000000054
:10390000A8000020436C6F7365000000416C726575
:1039100061647920436C6F73650000001CB5054835
:10392000012100234A02CDE9001003A1054800F05F
:10393000FBFF1CBD7000002073746172745F7461C2
:10394000736B0000493900081CB5044600F06EF99D
:103950001248032100238022CDE9001010A1134852
:1039600000F0E2FF1248022100230A02CDE9001014
:1039700010A1134800F0D8FF124804210023CA0107
:10398000CDE9001010A1144800F0CEFF13480068E4
:1039900000F094FA00F074F91CBD000074000020DF
:1039A000757365725F7461736B000000E13A000823
:1039B000780000206F6C65645F7461736B000000B9
:1039C000132A00087C00002073696D383030615F75
:1039D0007461736B00000000DD350008700000208A
:1039E0007FB505460C4601210220FDF753FEADF8D8
:1039F0000450ADF800400020ADF80600ADF802001C
:103A000069460E48FEF7C6FC012211460B48FEF738
:103A1000B7FC1D208DF80C0001208DF80F00002050
:103A20008DF80D0003208DF80E0003A8FDF756FB5E
:103A300001210248FEF787FC7FBD00000004004022
:103A400010B586B00446012144F20400FDF732FEB1
:103A50004FF40070ADF8140003208DF81600182004
:103A60008DF8170005A91C48FDF7DDF84FF48060BC
:103A7000ADF8140004208DF8170005A91648FDF7CD
:103A8000D2F825208DF8000003208DF801008DF874
:103A9000020001208DF803006846FDF71FFB01942A
:103AA0000020ADF80800ADF80A00ADF80C00ADF844
:103AB00010000C20ADF80E0001A90848FEF7A4FD87
:103AC000012240F225510548FEF779FD0121034806
:103AD000FEF732FD06B010BD00080140003801407D
:103AE000FEF79AFE3CE01F4800681F4908701F4817
:103AF000D0F810011E4908701E48006808B901205E
:103B000000E000201B4908601B480068E8B91B481A
:103B10000078012819D114480078012803D11848E9
:103B20000068184908601748006870B110480078AC
:103B300001280AD1144800680F4908600120134980
:103B4000087013480068134908601248006810B1F3
:103B5000FDF75CF801E0FDF74FF8642000F080F914
:103B6000C1E70000288121429D0000200000214281
:103B70009C000020B4012242A4000020B8000020D4
:103B8000AC000020A0000020B0000020FB000020BE
:103B9000B4000020A800002001460A69D1E90130E4
:103BA0009860D1E9010358605068884201D1886863
:103BB0005060002008611068401E10601068704757
:103BC00000F1080141604FF0FF31816000F1080110
:103BD000C1600161002101607047002101617047EF
:103BE00010B502460B685C1C0CB9106907E002F1C5
:103BF000080000E04068446824689C42FAD94468A0
:103C00004C604C68A160886041600A611468641C63
:103C1000146010BD42684A6093688B609368596075
:103C20009160086103685B1C0360704700BF50200F
:103C300080F31188BFF34F8FBFF36F8F00BF0E4823
:103C40000068401C0C49086008460068012812D131
:103C50000A480068C0B208B9012000E0002050B94D
:103C600000BF502080F31188BFF34F8FBFF36F8FD9
:103C700000BF00BFFEE770476401002004ED00E0D4
:103C80000D48006850B900BF502080F31188BFF381
:103C90004F8FBFF36F8F00BF00BFFEE7064800687D
:103CA000401E054908600846006820B9002080F3DE
:103CB000118800BF00BF70476401002070B5064640
:103CC0003546002E3FD0083D2C461F4960680968E4
:103CD000084008B1012000E0002050B900BF50208A
:103CE00080F31188BFF34F8FBFF36F8F00BF00BF0A
:103CF000FEE7206808B9012000E0002050B900BFAD
:103D0000502080F31188BFF34F8FBFF36F8F00BF38
:103D100000BFFEE70C4960680968084098B1206858
:103D200088B90949606809688843606000F03CFA16
:103D30000649606809680844044908602046FFF79E
:103D4000EBF800F08BFF70BD6001002058010020EF
:103D5000064800684FF47A71B0FBF1F0401E4FF056
:103D6000E02148610720086170470000140000202E
:103D700070B5FCF7A3FA0446102C16D304F1E0202A
:103D800090F8F05315480078854201DB012000E0EF
:103D9000002050B900BF502080F31188BFF34F8F2F
:103DA000BFF36F8F00BF00BFFEE70D48006800F44F
:103DB000E0600C490968884201D8012000E0002039
:103DC00050B900BF502080F31188BFF34F8FBFF36D
:103DD0006F8F00BF00BFFEE770BD000068010020CC
:103DE0000CED00E06C010020024600200BE0084BC7
:103DF00053F8303033B9064B43F8301003EBC003AF
:103E00005A6002E0401C0828F1D300BF7047000050
:103E1000940B00202DE9F04105460E4617462C462E
:103E2000FFF704FF94F94400401C10B9002084F807
:103E3000440094F94500401C10B9002084F8450066
:103E4000FFF71EFFA06B28B93A46314604F1240063
:103E500000F0D0F82046FFF7B8FABDE8F081000086
:103E600070B504460025D4B11248006808B9012095
:103E700000E0002050B900BF502080F31188BFF34C
:103E80004F8FBFF36F8F00BF00BFFEE700F08CF9CC
:103E900000212046FEF7CCFD00F0E0FE05463DB9CE
:103EA0004FF0805004490860BFF34F8FBFF36F8F0E
:103EB00070BD00003401002004ED00E070B505463F
:103EC000FFF7B4FE15B93048006800E02846044604
:103ED000201DFFF761FE78B9E06A00EB80002B49F6
:103EE00051F8200040B994F82C100120884028494E
:103EF0000968814326480160A06A18B104F11800DE
:103F0000FFF74AFE23480068401C224908601E480B
:103F10000068844209D1211D1F48FFF77BFE1F481E
:103F20000068401C1D49086009E01D480068401EEB
:103F30001B4908602046FEF7DAFEFFF799F9FFF704
:103F40009FFE18480068E8B10F480068844219D104
:103F50001548006808B9012000E0002050B900BFF2
:103F6000502080F31188BFF34F8FBFF36F8F00BFD6
:103F700000BFFEE74FF080500C490860BFF34F8F41
:103F8000BFF36F8F70BD0000FC000020D40B002039
:103F90001401002028010020900E002008010020BC
:103FA0000C010020180100203401002004ED00E085
:103FB00001200149086070472001002070B50446C7
:103FC0000D4654B900BF502080F31188BFF34F8FC6
:103FD000BFF36F8F00BF00BFFEE7054801681831CF
:103FE0002046FFF7FDFD01212846FEF721FD70BDAB
:103FF000FC00002070B505460E46144655B900BFBA
:10400000502080F31188BFF34F8FBFF36F8F00BF35
:1040100000BFFEE70648016818312846FFF7FAFDA1
:104020000CB14FF0FF3621463046FEF701FD70BD62
:10403000FC00002070B505462C46002D4BD02649CB
:10404000E06A0968C96A884245D2A06900F0004068
:1040500028B921480068C06AC0F12000A061E16A67
:1040600001EB81011D4A02EB81016069884201D1A7
:10407000012000E0002050B3201DFFF78DFD78B92E
:10408000E06A00EB8000154951F8200040B994F82F
:104090002C100120884012490968814310480160B2
:1040A0000D480068C06AE06294F82C100120884036
:1040B0000B49096808430A490860E16A01EB81017C
:1040C000064A02EB8100211DFFF7A4FD03E0024830
:1040D0000068C06AE06270BDFC000020D40B0020C4
:1040E0001401002050B900BF502181F31188BFF3A3
:1040F0004F8FBFF36F8F00BF00BFFEE70349096812
:1041000001600349096841607047000024010020F4
:10411000100100201CB51D4800210B468022CDE96E
:1041200000101BA11C4800F0FFFB0446012C02D12B
:1041300000F016FE0446012C15D100BF502080F37C
:104140001188BFF34F8FBFF36F8F00BF4FF0FF3069
:1041500012490860012012490860002011490860D6
:1041600000F070F810E0601C08B1012000E00020B1
:1041700050B900BF502080F31188BFF34F8FBFF3B9
:104180006F8F00BF00BFFEE71CBD000030010020A4
:1041900049444C4500000000A52D00082C010020DA
:1041A000180100201001002002480068401C01494D
:1041B00008607047340100201D48006818B10120D4
:1041C0001C49086032E000201A4908601A4800685B
:1041D000B0FA80F0C0F11F0101EB8100174A52F8DC
:1041E000200008B1012000E0002050B900BF50209D
:1041F00080F31188BFF34F8FBFF36F8F00BF00BFF5
:10420000FEE701EB81020D4B03EB8200426852682E
:10421000426000F108024368934202D1426852684A
:1042200042604268D268064B1A6000BF70470000C7
:10423000340100202001002014010020D40B0020B4
:10424000FC0000201CB52248014609780191FF219D
:10425000024611700146097800919DF8001001F0A6
:1042600050011C4A117007211B4A116009E01A49CC
:104270000968491E184A11609DF800104906090E88
:1042800000919DF8001001F080018029EFD01249C3
:1042900009680902104A11601146098801F4E061B9
:1042A00011600B4A019911700C48006840F47000CD
:1042B0000A4908600846006840F070400860FFF74F
:1042C00047FD002006490860FBF7C2FF00201CBD27
:1042D00000E400E0680100206C01002020ED00E017
:1042E0006401002010B500BF502080F31188BFF397
:1042F0004F8FBFF36F8F00BF00F05CFB18B14FF022
:1043000080500449086000BF002080F3118800BF7E
:1043100010BD000004ED00E02DE9F84305460E460F
:1043200090460DB1012000E0002050B900BF5020A0
:1043300080F31188BFF34F8FBFF36F8F00BF00BFB3
:10434000FEE70EB9002701E005FB06F707F1540070
:10435000FFF784F8044644B104F1540943464A4641
:10436000314628460094FEF731FD2046BDE8F8832B
:104370002DE9FF4782B005460E461F464FF0000A62
:104380002C4654B900BF502080F31188BFF34F8FE3
:10439000BFF36F8F00BF00BFFEE70EB9206C08B9F6
:1043A000012000E0002050B900BF502080F31188A8
:1043B000BFF34F8FBFF36F8F00BF00BFFEE700F06A
:1043C000E3FA08B9049808B9012000E0002050B9C8
:1043D00000BF502080F31188BFF34F8FBFF36F8F62
:1043E00000BF00BFFEE700BFFFF720FCD4F8389005
:1043F000B9F1000F3DD0D4F80C8031462046FEF7CD
:1044000023FCDFB9A9F10100A063206810B9FFF710
:10441000C3F86060206908B9012000E0002010BBEB
:1044200004F1100000F0CEFBE8B14FF0805040499D
:104430000860BFF34F8FBFF36F8F14E0C4F80C8098
:10444000606A08B9012000E0002060B904F124008E
:1044500000F0B8FB38B14FF0805035490860BFF329
:104460004F8FBFF36F8FFFF70BFC012006B0BDE845
:10447000F087049818B9FFF703FC0020F6E7BAF1BB
:10448000000F04D16846FFF72DFE4FF0010AFFF739
:10449000F7FBFFF789FEFFF7C9FB94F94400401CC6
:1044A00010B9002084F8440094F94500401C10B96C
:1044B000002084F84500FFF7E3FB04A9684600F0FC
:1044C000EDF940BB2046FEF787FDF0B1206830B91A
:1044D000FFF7ACFB6068FFF7ADFDFFF7D1FB04F120
:1044E00024000499FFF76AFD2046FEF76EFF00F0F6
:1044F000B5FB00287FF478AF4FF080500C4908607E
:10450000BFF34F8FBFF36F8F6EE72046FEF75DFF5F
:1045100000F0A4FB68E72046FEF757FF00F09EFB83
:104520002046FEF759FD0028EED000209EE700004F
:1045300004ED00E070B505460E462C4654B900BFA8
:10454000502080F31188BFF34F8FBFF36F8F00BFF0
:1045500000BFFEE7FFF76AFBD4E90F12206801FBFA
:10456000020060600020A0632068A060E06B401E35
:10457000226C216800FB0210E060FF2084F84400F8
:1045800084F845009EB9206908B9012000E00020A8
:10459000A8B904F1100000F015FB80B14FF0805075
:1045A00009490860BFF34F8FBFF36F8F07E004F135
:1045B0001000FFF705FB04F12400FFF701FBFFF7F4
:1045C0005FFB012070BD000004ED00E02DE9FF431A
:1045D00083B0064688461D464FF00009344654B95C
:1045E00000BF502080F31188BFF34F8FBFF36F8F50
:1045F00000BF00BFFEE7B8F1000F01D1206C08B981
:10460000012000E0002050B900BF502080F3118845
:10461000BFF34F8FBFF36F8F00BF00BFFEE7022DC8
:1046200002D1E06B012801D1012000E0002050B947
:1046300000BF502080F31188BFF34F8FBFF36F8FFF
:1046400000BF00BFFEE700F09FF908B9059808B960
:10465000012000E0002050B900BF502080F31188F5
:10466000BFF34F8FBFF36F8F00BF00BFFEE700BFE8
:10467000FFF7DCFAA06BE16B884201D3022D38D141
:104680002A4641462046FEF7F4FA0746A06C68B178
:1046900029462046FEF7BCFC28B34FF080503C4929
:1046A0000860BFF34F8FBFF36F8F1CE0606A08B9DB
:1046B000012000E0002068B904F1240000F082FA33
:1046C00088B14FF0805032490860BFF34F8FBFF37D
:1046D0006F8F08E03FB14FF080502D490860BFF365
:1046E0004F8FBFF36F8FFFF7CBFA012007B0BDE804
:1046F000F083059818B9FFF7C3FA0020F6E7B9F17F
:10470000000F04D101A8FFF7EDFC4FF00109FFF7FE
:10471000B7FAFFF749FDFFF789FA94F94400401C06
:1047200010B9002084F8440094F94500401C10B9E9
:10473000002084F84500FFF7A3FA05A901A800F0BE
:10474000ADF8F0B92046FEF754FCA0B104F110001A
:104750000599FFF733FC2046FEF737FE00F07EFA9E
:10476000002885D14FF0805009490860BFF34F8F72
:10477000BFF36F8F7CE72046FEF727FE00F06EFA4E
:1047800076E72046FEF721FE00F068FA0020ADE74C
:1047900004ED00E02DE9F05F80468A4615461E468E
:1047A000444654B900BF502080F31188BFF34F8FA7
:1047B000BFF36F8F00BF00BFFEE7BAF1000F01D15A
:1047C000206C08B9012000E0002050B900BF502043
:1047D00080F31188BFF34F8FBFF36F8F00BF00BF0F
:1047E000FEE7022E02D1E06B012801D1012000E09A
:1047F000002050B900BF502080F31188BFF34F8FC5
:10480000BFF36F8F00BF00BFFEE7FFF7B1FA00BF35
:104810005021EFF3118081F31188BFF34F8FBFF365
:104820006F8F00BF0746A06BE16B884201D3022E59
:104830002BD194F945B0324651462046FEF719FA7D
:104840000BF10100C8B9A06C40B131462046FEF71B
:10485000DFFBB8B1B5B10120286013E0606A08B988
:10486000012000E0002068B904F1240000F0AAF95A
:1048700040B13DB10120286004E00BF1010040B2DD
:1048800084F845004FF0010901E04FF0000900BF36
:1048900087F3118800BF4846BDE8F09F70B5044615
:1048A0000D4654B900BF502080F31188BFF34F8FDD
:1048B000BFF36F8F00BF00BFFEE755B900BF5020A8
:1048C00080F31188BFF34F8FBFF36F8F00BF00BF1E
:1048D000FEE7FFF7ABF9124803682868401C08B9E7
:1048E000002619E00F4920680968884204D06068F2
:1048F000984201D801260FE06068181A296888429A
:1049000009D228686168591A401A28602046FFF7C2
:10491000E9FB002600E00126FFF7B2F9304670BD42
:1049200010010020240100202DE9FF4F85B08046B2
:1049300089461746DDE912ABB800FEF78FFD064643
:1049400056B15C20FEF78AFD04460CB1266304E0F4
:104950003046FFF7B3F900E000247CB10020CDE938
:1049600000ABCDE902403A4649464046089BFEF777
:1049700044FA2046FEF7A8F8012501E04FF0FF3584
:10498000284609B0BDE8F08F0549096809B901203A
:1049900005E00449096809B9022000E000207047D9
:1049A0001801002034010020014908687047000008
:1049B000100100202DE9F0414FF000084448006844
:1049C000002877D143480068451C4248056015BB64
:1049D00041480068006808B9012000E0002050B993
:1049E00000BF502080F31188BFF34F8FBFF36F8F4C
:1049F00000BF00BFFEE738480768384800683649FE
:104A000008603648076036480068401C3449086032
:104A1000FEF72EFC00BF3348006885423CD300BF40
:104A20002D480068006808B9012000E0002020B18E
:104A30004FF0FF302B4908602DE027480068C06820
:104A4000C4686668B54202D22648066023E0201D8D
:104A5000FFF7A2F8A06A18B104F11800FFF79CF85C
:104A600094F82C10012088401F49096808431E490A
:104A70000860E16A01EB81011C4A02EB8100211D03
:104A8000FFF7C8F81A49E06A0968C96A8842C7D3BB
:104A90004FF00108C4E700BF15480068C06A00EB8A
:104AA0008000124951F82000012801D94FF0010877
:104AB00005E0FFE70F480068401C0E4908600E48FB
:104AC000006808B14FF001084046BDE8F0810000E1
:104AD000340100201001002000010020040100200A
:104AE000240100202C01002014010020D40B002000
:104AF000FC0000201C0100202001002070B50546AC
:104B00002C460026002D55D02B480068844201D148
:104B1000012000E0002050B900BF502080F3118830
:104B2000BFF34F8FBFF36F8F00BF00BFFEE7206D55
:104B300050B900BF502080F31188BFF34F8FBFF3EF
:104B40006F8F00BF00BFFEE7206D401E2065E16C47
:104B5000E06A88422ED0206D60BB201DFFF71CF854
:104B600078B9E06A00EB8000144951F8200040B9A0
:104B700094F82C100120884011490968814310489D
:104B80000160E06CE062E06AC0F12000A06194F88E
:104B90002C10012088400A49096808430849086028
:104BA000E16A01EB8101054A02EB8100211DFFF75B
:104BB00031F80126304670BDFC000020D40B0020E7
:104BC0001401002070B50646F068C46854B900BFEF
:104BD000502080F31188BFF34F8FBFF36F8F00BF5A
:104BE00000BFFEE704F11800FEF7D6FF1548006885
:104BF000A8B9201DFEF7D0FF94F82C1001208840A2
:104C000011490968084310490860E16A01EB810114
:104C10000E4A02EB8100211DFEF7FCFF04E004F1C7
:104C200018010B48FEF7F6FF0A49E06A0968C96AED
:104C3000884204D9012501200749086000E00025C9
:104C4000284670BD3401002014010020D40B002040
:104C50007C0E0020FC0000202001002070B5002404
:104C600000263648006850B900BF502080F31188F4
:104C7000BFF34F8FBFF36F8F00BF00BFFEE7FEF79C
:104C8000D5FF2E480068401E2C4908600846006881
:104C900000284FD12A48006800284BD024E029483A
:104CA000C068C46804F11800FEF776FF201DFEF707
:104CB00073FF94F82C1001208840234909680843A9
:104CC00021490860E16A01EB8101204A02EB810081
:104CD000211DFEF79FFF1E49E06A0968C96A8842E4
:104CE00002D301201B4908601648006808B901205A
:104CF00000E000200028D2D00CB1FEF7B9FA164827
:104D0000056865B100BFFFF755FE10B101201149DC
:104D100008606D1E002DF6D100200F4908600D4877
:104D2000006838B1012630070C490860BFF34F8F87
:104D3000BFF36F8FFEF7A4FF304670BD3401002033
:104D40000C0100207C0E002014010020D40B002058
:104D5000FC000020200100201C01002004ED00E0E8
:104D60001CB50024FDF70CFF0D48006850B10D483C
:104D700002210023CA01CDE900100BA10C48FFF766
:104D8000D3FD044654B900BF502080F31188BFF30F
:104D90004F8FBFF36F8F00BF00BFFEE720461CBDE3
:104DA0004001002044010020546D722053766300BE
:104DB000B13300082DE9FE4304460D4616461F4652
:104DC000DDF828804FF0000954B900BF502080F36F
:104DD0001188BFF34F8FBFF36F8F00BF00BFFEE797
:104DE0001448006810B3009501960294062D15DA58
:104DF000FFF7CAFD022808D10023424669460D4844
:104E00000068FFF7E3FB814610E000231A4669467D
:104E100008480068FFF7DAFB814607E000233A46BE
:104E2000694604480068FFF7B5FC81464846BDE87E
:104E3000FE8300004001002010B500290AD0087848
:104E4000002807D005487844FBF798FC002801D0DB
:104E5000002010BD0248784410BD00007E8D000087
:104E6000768D00000000000000000000000000003F
:104E7000000000003F400000000000000000300083
:104E8000400030004000000009000BC03D000BC096
:104E90003D00090018C024407FE02240318000001E
:104EA000180024C01B000D803240018003801C408C
:104EB00027401C80074000401000600000000000F8
:104EC000000000000000000000001F802040402083
:104ED0000000402020401F80000000000900060064
:104EE0001F80060009000000040004003F80040049
:104EF000040000000010006000000000000000003E
:104F0000040004000400040004000000000000404D
:104F10000000000000000000002001C00600380072
:104F2000400000001F802040204020401F800000E3
:104F3000000010403FC000400000000018C02140A9
:104F4000224024401840000010802040244024408B
:104F50001B80000002000D0011003FC00140000056
:104F60003C80244024402440238000001F802440B3
:104F700024403440038000003000200027C0380067
:104F8000200000001B802440244024401B8000009F
:104F90001C0022C0224022401F80000000000000B0
:104FA0000840000000000000000000000460000055
:104FB00000000000000004000A00110020804040B2
:104FC0000900090009000900090000000000404034
:104FD000208011000A000400180020002340240053
:104FE000180000001F802040274029401F4000007B
:104FF000004007C039000F0001C0004020403FC002
:10500000244024401B8000001F802040204020407E
:105010003080000020403FC0204020401F80000022
:1050200020403FC024402E4030C0000020403FC000
:1050300024402E00300000000F001080204022404D
:105040003380020020403FC0040004003FC02040E5
:10505000204020403FC02040204000000060202031
:1050600020203FC02000200020403FC024400B00F3
:1050700030C0204020403FC020400040004000C0E1
:105080003FC03C0003C03C003FC0000020403FC088
:105090000C4023003FC020001F80204020402040C3
:1050A0001F80000020403FC0244024001800000062
:1050B0001F802140214020E01FA0000020403FC071
:1050C0002440260019C0004018C02440244022403B
:1050D00031800000300020403FC020403000000000
:1050E00020003F80004000403F80200020003E0024
:1050F00001C0070038002000380007C03C0007C08E
:1051000038000000204039C0060039C020400000AF
:105110002000384007C0384020000000304021C047
:105120002640384020C00000000000007FE0402002
:1051300040200000000070000C00038000400000D0
:105140000000402040207FE0000000000000200020
:1051500040002000000000000010001000100010AF
:1051600000100010000000004000000000000000DF
:10517000000002800540054003C0004020003FC001
:105180000440044003800000000003800440044009
:105190000640000000000380044024403FC000405F
:1051A000000003800540054003400000000004406B
:1051B0001FC0244024402000000002E0055005509C
:1051C0000650042020403FC00440040003C00040BB
:1051D0000000044027C00040000000000010001044
:1051E000041027E00000000020403FC001400700FD
:1051F00004C00440204020403FC000400040000068
:1052000007C0040007C0040003C00000044007C03A
:105210000440040003C00040000003800440044038
:1052200003800000041007F00450044003800000D5
:10523000000003800440045007F00010044007C041
:105240000240040004000000000006400540054044
:1052500004C00000000004001F8004400040000063
:10526000040007800040044007C00040040007001D
:1052700004C0018006000400060001C0070001C050
:1052800006000000044006C0010006C00440000003
:105290000410071004E00180060004000000044030
:1052A00005C00640044000000000000004007BE050
:1052B00040200000000000000000FFF0000000009F
:1052C000000040207BE0040000000000400080005F
:1052D000400020002000400000000000000000000E
:1052E00000000000000000000000000000001FCCD3
:1052F000000C00000000000000000800300060000A
:105300000800300060000000022003FC1E20022084
:1053100003FC1E200220000000000E1811043FFFB5
:1053200010840C78000000000F0010840F3800C0BB
:10533000077818840078000000780F8410C41124C6
:105340000E9800E400840008080068007000000067
:10535000000000000000000000000000000007E066
:105360001818200440020000000040022004181811
:1053700007E00000000000000240024001800FF042
:1053800001800240024000000080008000800FF891
:1053900000800080008000000001000D000E000071
:1053A000000000000000000000000080008000807D
:1053B00000800080008000800000000C000C0000D5
:1053C000000000000000000000000006001800605F
:1053D0000180060018002000000007F008081004F3
:1053E0001004080807F000000000080408041FFC6F
:1053F000000400040000000000000E0C1014102433
:10540000104411840E0C000000000C18100411044C
:10541000110412880C700000000000E00320042436
:1054200008241FFC0024000000001F9810841104B1
:105430001104108810700000000007F008881104A3
:10544000110418880070000000001C00100010FCFF
:1054500013001C001000000000000E3811441084DE
:10546000108411440E38000000000700088C10441E
:105470001044088807F00000000000000000030C42
:10548000030C000000000000000000000001010605
:105490000000000000000000000000800140022029
:1054A000041008081004000002200220022002203C
:1054B000022002200220000000001004080804104E
:1054C000022001400080000000000E001200100CBD
:1054D000106C10800F00000003E00C1813E414247B
:1054E00017C4082807D000000004003C03C41C4077
:1054F000074000E4001C000410041FFC1104110408
:1055000011040E880070000003E00C181004100451
:10551000100410081C10000010041FFC10041004DC
:105520001004080807F0000010041FFC1104110407
:1055300017C410040818000010041FFC1104110007
:1055400017C010000800000003E00C18100410043D
:1055500010441C780040000010041FFC10840080E0
:10556000008010841FFC10040000100410041FFCB5
:1055700010041004000000000003000110011001DD
:105580001FFE10001000000010041FFC1104038017
:105590001464181C1004000010041FFC1004000404
:1055A00000040004000C000010041FFC1F0000FC9D
:1055B0001F001FFC1004000010041FFC0C0403005B
:1055C00000E010181FFC100007F008081004100479
:1055D0001004080807F0000010041FFC108410805D
:1055E000108010800F00000007F00818102410240D
:1055F000101C080A07F2000010041FFC110411001F
:1056000011C011300E0C000400000E1C1104108497
:10561000108410441C3800001800100010041FFCF7
:10562000100410001800000010001FF810040004FF
:10563000000410041FF8100010001E0011E0001CF0
:10564000007013801C0010001FC0103C00E01F0001
:1056500000E0103C1FC000001004180C163401C0FC
:1056600001C01634180C100410001C00130400FCB8
:1056700013041C00100000000804101C10641084A7
:1056800013041C04101800000000000000007FFE3E
:105690004002400240020000000030000C00038085
:1056A0000060001C000300000000400240024002B5
:1056B0007FFE00000000000000000000200040000D
:1056C0004000400020000000000100010001000136
:1056D0000001000100010001000040004000200026
:1056E00000000000000000000000009801240144B8
:1056F0000144014400FC000410001FFC0088010468
:10570000010400880070000000000070008801049F
:1057100001040104008800000000007000880104FA
:10572000010411081FFC0004000000F801440144BA
:105730000144014400C800000000010401040FFC02
:105740001104110411001800000000D601290129DC
:10575000012901C90106000010041FFC008401009A
:105760000100010400FC000400000104190419FCFC
:10577000000400040000000000000003000101011B
:10578000190119FE0000000010041FFC0024004055
:1057900001B4010C010400000000100410041FFCFF
:1057A0000004000400000000010401FC01040100E9
:1057B00001FC0104010000FC010401FC0084010063
:1057C0000100010400FC0004000000F801040104D1
:1057D0000104010400F80000010101FF008501043B
:1057E00001040088007000000000007000880104BF
:1057F0000104010501FF00010104010401FC008412
:105800000104010001800000000000CC01240124FB
:10581000012401240198000000000100010007F8A4
:105820000104010400000000010001F8000400046C
:105830000004010801FC0004010001800170000C5B
:10584000001001600180010001F0010C003001C076
:105850000030010C01F0010000000104018C007413
:105860000170018C01040000010101810171000E31
:10587000001801600180010000000184010C013466
:1058800001440184010C0000000000000000000041
:1058900001003EFC40024002000000000000000049
:1058A000FFFF0000000000000000400240023EFC3C
:1058B0000100000000000000000060008000800087
:1058C0004000400020002000000000000000000018
:1058D00000000000000000000000000000000000C8
:1058E00000000000000000000000000000000000B8
:1058F00000000000000000000000000F80380FFED4
:10590000380F803800000000000000000000000098
:105910000000000000000100000600000C0000383C
:1059200000003100000600000C00003800003000CC
:10593000000000000000000061800067F807F980A7
:105940000061800061800061800061800067F8076D
:10595000F98000618000000000000000000001C02C
:10596000E003E0F00630080418081FFFFE040E08EC
:105970000787F00381E000000000000001F000064E
:105980000C00040408060C7001F9C0000E00003B76
:10599000E000EC18070808040C180003E000000001
:1059A0000001E00007F003F818041C0804170807BA
:1059B000E1D003C0E00023B0003C08002008000054
:1059C0001000000000000001000031000032000063
:1059D0001C000000000000000000000000000000AB
:1059E00000000000000000000000000000000000B7
:1059F00000000000000000007F0001FFC00780F0F1
:105A00000C0018100004200002000000000000201C
:105A100000021000040C00180780F001FFC0007F96
:105A20000000000000000000000000000000000076
:105A3000000000004200006600006600003C00001C
:105A4000180003FFC0001800003C0000660000665C
:105A500000004200000000000800000800000800EC
:105A600000080000080001FFC00008000008000056
:105A7000080000080000080000000000000100000D
:105A80003100003200001C00000000000000000097
:105A90000000000000000000000000000000000006
:105AA00008000008000008000008000008000008C6
:105AB00000000800000800000800000800000000C6
:105AC000000000000000000038000038000038002E
:105AD00000000000000000000000000000000000C6
